:020000041004E6
:1000000000600020996E0410A5690410AD69041009
:1000100000000000000000000000000000000000E0
:10002000000000000000000000000000B56904109E
:100030000000000000000000BF690410C96904103E
:10004000FD6E0410FD6E0410FD6E0410614104107D
:10005000000000000000000000000000FD6E041021
:10006000DD5F0410D95E0410B55E0410FD6E04104F
:10007000FD6E0410FD6E041000000000D76904102E
:10008000ED690410FD6E0410316A041000000000D8
:10009000236A04100000000000000000156A04102C
:1000A000FD6E04103F6A0410FD6E0410FD6E041016
:1000B0000000000000000000000000000000000040
:1000C00010B5904216D98AB2030C090C0C4659435C
:1000D00080B25343444350431B191A041B0C10189D
:1000E000594180225203002312184B41520DD8026D
:1000F000104310BD4843802252031218520D10467F
:1001000010BDC0468B0707D0013A22D30B780131CE
:10011000037001308B07F7D1830730D0DB4219D051
:100120000138043A08D308C943701B0A43801B0CEA
:1001300003710430043AF6D2D20707D30B88437018
:1001400001D08A78C2701B0A8370704701D00B7887
:1001500043707047043A06D308C903801B0C4380E0
:100160000430043AF8D2D20705D30B88038005D0B7
:100170008B788370704701D00B780370704770B430
:10018000103A03D378C978C0103AFBD2530701D391
:1001900018C918C001D508C908C0D20704D30B88F4
:1001A000038002300231002A01D50B78037070BC45
:1001B0007047C046EFF31482EFF30981154880F3CE
:1001C0001488BFF36F8FF0B543464C4655465E46E4
:1001D0006746F8B4104CEFF30883636006B4BFF3CE
:1001E0004F8F30BFC046C0460B4C646884F308880C
:1001F00082B003BCF8BC9846A146AA46B346BC46AA
:10020000F0BC04BC80F3098881F31488BFF36F8FBE
:100210001047C04600000000040000200023C25C1C
:100220000133002AFBD1581E7047000003B4714609
:10023000490840004900095E49008E4403BC7047EC
:10024000002243088B4274D303098B425FD3030A15
:100250008B4244D3030B8B4228D3030C8B420DD328
:10026000FF22090212BA030C8B4202D312120902B6
:1002700065D0030B8B4219D300E0090AC30B8B42F4
:1002800001D3CB03C01A5241830B8B4201D38B03A2
:10029000C01A5241430B8B4201D34B03C01A524147
:1002A000030B8B4201D30B03C01A5241C30A8B428A
:1002B00001D3CB02C01A5241830A8B4201D38B0275
:1002C000C01A5241430A8B4201D34B02C01A524119
:1002D000030A8B4201D30B02C01A5241CDD2C3098B
:1002E0008B4201D3CB01C01A524183098B4201D307
:1002F0008B01C01A524143098B4201D34B01C01AF2
:10030000524103098B4201D30B01C01A5241C30869
:100310008B4201D3CB00C01A524183088B4201D3D8
:100320008B00C01A524143088B4201D34B00C01AC4
:100330005241411A00D20146524110467047FFE730
:1003400001B5002000F0F0F802BDC0460029F7D04A
:1003500076E7704703460B437FD4002243088B4265
:1003600074D303098B425FD3030A8B4244D3030B3C
:100370008B4228D3030C8B420DD3FF22090212BA01
:10038000030C8B4202D31212090265D0030B8B427D
:1003900019D300E0090AC30B8B4201D3CB03C01A67
:1003A0005241830B8B4201D38B03C01A5241430B42
:1003B0008B4201D34B03C01A5241030B8B4201D332
:1003C0000B03C01A5241C30A8B4201D3CB02C01A9D
:1003D0005241830A8B4201D38B02C01A5241430A15
:1003E0008B4201D34B02C01A5241030A8B4201D304
:1003F0000B02C01A5241CDD2C3098B4201D3CB01AB
:10040000C01A524183098B4201D38B01C01A524159
:1004100043098B4201D34B01C01A524103098B425D
:1004200001D30B01C01A5241C3088B4201D3CB0048
:10043000C01A524183088B4201D38B00C01A52412B
:1004400043088B4201D34B00C01A5241411A00D2DB
:1004500001465241104670475DE0CA0F00D0494244
:10046000031000D34042534000229C4603098B42B4
:100470002DD3030A8B4212D3FC22890112BA030A3C
:100480008B420CD3890192118B4208D389019211BE
:100490008B4204D389013AD0921100E08909C30943
:1004A0008B4201D3CB01C01A524183098B4201D345
:1004B0008B01C01A524143098B4201D34B01C01A30
:1004C000524103098B4201D30B01C01A5241C308A8
:1004D0008B4201D3CB00C01A524183088B4201D317
:1004E0008B00C01A5241D9D243088B4201D34B0032
:1004F000C01A5241411A00D20146634652415B1074
:10050000104601D34042002B00D549427047634654
:100510005B1000D3404201B5002000F005F802BD99
:100520000029F8D016E770477047C0469140030095
:1005300090409C46203A9340194352426346D34030
:10054000194370471C2101231B04984201D3000C5E
:1005500010391B0A984201D3000A08391B09984236
:1005600001D30009043902A2105C40187047C0464C
:10057000040302020101010100000000000000006C
:10058000002B11D1002A0FD1002900D1002802D060
:100590000021C943080007B4024802A14018029094
:1005A00003BDC04685FFFFFF03B4684601B502984E
:1005B00000F034F8019B9E4602B00CBC7047C04668
:1005C000F0B5CE469946030C9C46130447461B0CD7
:1005D0001D000E0061460404240C80B50700100CB9
:1005E0004B436543414360432C0CC01824188C4690
:1005F000A34203D980235B029846C4444946794309
:100600005643230C2D042D0C8919634424046019CE
:10061000C918C0BCB946B046F0BDC046F0B5574693
:100620004E464546DE46E0B504000D00924699462A
:1006300083B08B4230D82DD04946504600F0BAF8EE
:1006400029000600200000F0B5F8331A9846203B38
:1006500034D49B4653465A46934042461F00534665
:1006600093401E00AF423BD8AF4200D179E05B46D9
:10067000A41BBD41002B00DA76E00022002300928B
:10068000019301235A46934001930123424693402C
:10069000009329E08242CFD90022002300920193E7
:1006A0000C9B002B01D01C605D600098019903B089
:1006B000F0BCBB46B246A946A046F0BD42469B46AA
:1006C00020239B1A5246DA40414613004A468A408C
:1006D000170042461F43534693401E00AF42C3D902
:1006E00000220023009201934346002BD8D0FB0741
:1006F00072081A4346467B080EE0AB4201D1A24283
:100700000CD8A41A9D41012024196D410021013EFD
:1007100024184D41002E06D0AB42EED9013E2419DB
:100720006D41002EF8D1009801995B46001969418E
:10073000002B24DB2B005A464446D3402A00E240DB
:100740001C005B461500002B2ADB26009E40330070
:1007500026004746BE403200801A99410090019120
:100760009EE7A342BCD882E74246202300219B1A81
:100770000022009101920122DA40019285E742466F
:1007800020239B1A2A0046469A402300F340444601
:1007900013432A00E2401C005B461500002BD4DA0C
:1007A00042462F002023260097409B1ADE403B0044
:1007B0003343CDE710B5002903D1FFF7C3FE203046
:1007C00002E00800FFF7BEFE10BDC04680B500AFD6
:1007D000074A80239B000021D154054B054A002184
:1007E0009954034B044A00219954C046BD4680BD2C
:1007F00094010020010200000202000080B582B0D6
:1008000000AF0200FB1D1A701F4B204A9B5C002B9F
:1008100034D11D4A80239B00D35C19001A4BFA1D6A
:1008200012785A54184A80239B00D35C0133D9B202
:10083000154A80239B00D154134A80239B00D15C2E
:10084000114A80239B00D1540F4A80239B00D35C24
:1008500001330F4A134003D5013B0E4A13430133C2
:100860001900094B0C4A9B5CCB1A5A425341DBB22C
:100870001900054B054A9954012300E00023180094
:10088000BD4602B080BDC0469401002002020000B7
:10089000FF01008000FEFFFF0102000080B582B072
:1008A00000AFBB1D012252421A80214A80239B00C7
:1008B000D25C1F4B1F495B5C9A4204D11C4B1E4A01
:1008C0009B5C002B2DD01A4B1A4A9B5C1A00184BCC
:1008D0009A5CBB1D1A80164B164A9B5C0133D9B239
:1008E000134B144A9954124B124A995C104B114AFB
:1008F00099540F4A80239B00D35C01330F4A134065
:1009000003D5013B0E4A134301331900084B094A32
:100910009B5CCB1A5A425341DBB21900044B064A86
:100920009954BB1D00229B5E1800BD4602B080BDDD
:10093000940100200102000002020000FF0100807B
:1009400000FEFFFF80B500AF0A4A80239B00D25C07
:10095000084B09495B5C9A4206D1064B074A9B5CEF
:10096000002B01D1012300E00023DBB21800BD46BB
:1009700080BDC04694010020010200000202000078
:1009800090B589B000AF08243B19180018231A004D
:10099000002126F045FD3B00180008231A00002125
:1009A00026F03EFD3B1905221A603B1980225202B7
:1009B0005A603B1904221A613B1918000BF06EFDB6
:1009C000031E01D000230FE03B0000221A603B0011
:1009D00000225A603B00102118000BF0A9FE031EF4
:1009E00001D0002300E001231800BD4609B090BDEE
:1009F00080B586B000AF3B00180018231A00002114
:100A000026F00EFD3B0002221A603B0080225201BC
:100A10005A613B0018000CF021F8031E01D000239E
:100A200000E001231800BD4606B080BD80B582B04D
:100A300000AF0F4B1B78002B01D0012313E006F011
:100A40007DFB01237B60FFF7D3FF031E01D1002351
:100A50007B60FFF795FF031E01D100237B60044BF1
:100A600001221A707B681800BD4602B080BDC046E6
:100A70009703002080B500AF72B6C046C046FDE7C0
:100A800080B500AF72B6C046C046FDE7F0B5D646A9
:100A90004F464646C0B5B8B00AAF05000C0010007E
:100AA0001900FB1D2A1C1A70BB1D221C1A707B1D0D
:100AB000021C1A703B1D0A1C1A70FB1D1E78BB1D00
:100AC0001B7898467B1D1C783B1D1D7802F04EFE5E
:100AD0000300994604F0F8FA03001B0A9BB29A46F9
:100AE00004F0F2FA03001A00FF231340134908220E
:100AF000B818089353460793082306934B4605936B
:100B00000623049301230393032302930195009486
:100B10004346320026F068FB002004F01DFC08224A
:100B2000BB18180004F0CEFB04F04CFCC046BD46D8
:100B30002EB0E0BCBA46B146A846F0BD58820610B9
:100B4000F0B59DB004AF040008001100FB1D221C8D
:100B50001A70BB1D021C1A707B1D0A1C1A70FB1D2B
:100B60001B78002B01D1022100E00121FB1D1B7825
:100B7000002B01D0022000E00120BB1D1C787B1D52
:100B80001D78FB1D1B78002B01D1042300E00323FB
:100B9000FA1D1278002A01D0042200E003220E4E32
:100BA000B4460826BE1903920293019500940300EF
:100BB0000A006146300026F017FB002004F0CCFB51
:100BC0000826BB19180004F07DFB04F0FBFBC046AF
:100BD000BD4619B0F0BDC046E0820610F0B5DE4655
:100BE00057464E464546E0B5A5B00AAF02000F2372
:100BF000FB181A700E23FB180A1C1A700F23FB181F
:100C00001B78002B02D10623994601E00523994663
:100C10000E23FB181B787B600F23FB181B78002B1F
:100C200001D1082200E007220F23FB181B78012BBB
:100C300001D1062100E005210F23FB181B78012BB1
:100C400001D1082000E007200F23FB181B78022B9E
:100C500001D1082400E007240F23FB181B78022B86
:100C600001D1062500E005250F23FB181B78032B77
:100C700001D1082600E007260F23FB181B78032B61
:100C800002D106239C4601E005239C460F23FB1856
:100C90001B78042B02D10823984601E007239846CD
:100CA0000F23FB181B78042B02D10623BB6001E045
:100CB0000523BB60174B3B6008239A4608239B46DD
:100CC000BB44DA44BB6808934346079363460693E4
:100CD0000596049503940290019100927B684A4620
:100CE0003968504626F080FA002004F035FB0823CE
:100CF00008229B18DB19180004F0E4FA04F062FBE8
:100D0000C046BD461BB0F0BCBB46B246A946A04695
:100D1000F0BDC04630830610F0B5DE4657464E465D
:100D20004546E0B5A5B00AAF05000C00100019005B
:100D30000F26BB192A1C1A700E23FB18221C1A70CE
:100D40000D23FB18021C1A700C23FB180A1C1A70C6
:100D5000BB191B78002B02D102239C4601E0012322
:100D60009C460F23FB181B78012B02D102239846C7
:100D700001E0012398460F23FB181B78022B01D1B9
:100D8000022200E001220F23FB181B78032B01D164
:100D9000022100E001210E23FB181B7899460D2348
:100DA000FB181B789A460C23FB181B789B4688235C
:100DB00008201B18DB191B78BB600F23FB181B785E
:100DC000002B01D1042400E003240F23FB181B781F
:100DD000012B01D1042500E003250F23FB181B780C
:100DE000022B01D1042600E003260F23FB181B78F9
:100DF000032B02D104233B6001E003233B6017482F
:100E0000786008200823C018C0193B680993089629
:100E100007950694BB6805935B460493534603937A
:100E20004B4602930191009243466246796826F050
:100E3000DBF9002004F090FA08200823C318DB191E
:100E4000180004F03FFA04F0BDFAC046BD461BB0DE
:100E5000F0BCBB46B246A946A046F0BD9083061042
:100E6000F0B5DE4657464E464546E0B5CBB014AF2A
:100E700005000C00100019003723FB182A1C1A70FB
:100E800036257B19221C1A703526BB19021C1A70D4
:100E900034243B190A1C1A70A62330201B18DA19B7
:100EA000D0210B18DB191B78DB0813700B18DB192A
:100EB0001B7803221340DAB2A5231B18DB19111C7F
:100EC00009018A1A1A70A4231B18DB19D4210A18E5
:100ED000D2191278D2081A700B18DB191B7803226A
:100EE0001340DAB2A3231B18DB19111C09018A1A5B
:100EF0001A70A7210B18DB197A1912781A703A198F
:100F0000BB1912781B789A420ED20B18DB197A198A
:100F1000127801321A700B18DB191B780D2B03D1D4
:100F20000B18DB1901221A703723FB181B78002BD2
:100F300002D102233B6301E001233B633723FB180B
:100F40001B78012B02D10223FB6201E00123FB622B
:100F50003723FB181B78022B02D10223BB6201E06E
:100F60000123BB623623FB181B783B613523FB183A
:100F70001B78FB60A72330229B18DB191B78BB6012
:100F80003423FB181B787B603723FB181B78002B5E
:100F900002D104237B6201E003237B623723FB1829
:100FA0001B78012B02D104233B6201E003233B6247
:100FB0003723FB181B78022B02D10423FB6101E0CD
:100FC0000323FB613723FB181B78032B02D1022379
:100FD000BB6101E00123BB613723FB181B78042BA5
:100FE00002D102237B6101E001237B613723FB18DF
:100FF0001B78052B02D102239B4601E001239B466F
:101000003723FB181B78062B02D10223994601E0F7
:1010100001239946A62330229B18DB191B789A4698
:10102000A5239B18DB191B789846A4239B18DB1972
:101030001B789C46A3239B18DB191E783723FB18CB
:101040001B78032B01D1042500E003253723FB186F
:101050001B78042B01D1042400E003243723FB1860
:101060001B78052B01D1042200E003223723FB1853
:101070001B78062B01D1042300E0032321493960AA
:101080000C2030214018C01913931292119410951E
:101090000F9663460E9343460D9353460C934B466F
:1010A0000B935B460A937B690993BB690893FB69C1
:1010B00007933B6A06937B6A05937B680493BB683E
:1010C0000393FB6802933B690193BB6A0093FB6A3D
:1010D0003A6B396826F088F8002004F03DF90C20BE
:1010E0003023C318DB19180004F0ECF804F06AF997
:1010F000C046BD4637B0F0BCBB46B246A946A04686
:10110000F0BDC046D4830610F0B5DE4657464E46C5
:101110004546E0B5B7B00AAF02000E23FB181A80AF
:1011200002F0DCFC031E09D1564A102308215B188B
:10113000DB191100180026F057F88DE00E257B19F9
:1011400000241C5F02F0CAFC03009C4200DB7AE032
:101150007B1900229B5E002B75DB7B191A88082304
:1011600008215B18DB191100180002F0CBFC7B1979
:1011700000229B5E002B01DC052500E006250E23E6
:10118000FB1800241C5F02F0A9FC0300013B9C42F9
:1011900001DB072100E008210E23FB1800229A5EE4
:1011A0003A60082008228318DB191B7898468318B8
:1011B000DB195B7899468318DB191B799A468318EB
:1011C000DB199B78DB08DBB29B4614008318DB1924
:1011D0009B781A0003231A4013001B019E1A220059
:1011E0008318DB19DB78DB08DBB2BB6014008318E3
:1011F000DB19DB781A0003231A4013001B019A1A2B
:101200000319DB195B797B600319DB199B791E4895
:10121000844610200019C01909937B68089307922F
:10122000BB68069305965B460493534603934B466F
:101230000293434601933B6800930B002A006146EA
:1012400025F0D2FF08E0114A102308215B18DB19B2
:101250001100180025F0C8FF002004F07DF81023CD
:1012600008229B18DB19180004F02CF804F0AAF8E7
:10127000C046BD462DB0F0BCBB46B246A946A0460E
:10128000F0BDC0467C840610A884061014850610A4
:1012900080B582B000AF78600E4B7A681A600E4B52
:1012A00000221A700D4B01221A7002F0D1FC02F0DC
:1012B0006FFF04F0A1FD02F095F903F017FF002085
:1012C00005F05CFE022005F059FE01231800BD4622
:1012D00002B080BD980300209C0300209D030020E5
:1012E00080B582B000AF3B1D1860054B1A683B1DEE
:1012F0001968100002F0E1F8C046BD4602B080BD9A
:1013000098030020B0B584B000AF3B1D00221A70D6
:101310003B1D00225A800F257C1902F0DBFC0300E4
:1013200023704D4B1B787A1912789A422FD04B4B71
:101330001B6832331C0004F0ABFD03009C4226D234
:101340003B1D04221A70444B1A787B191B785340BA
:10135000DBB21B029AB27B191B789BB2D3189AB2EC
:101360003B1D5A803C4B7A1912781A7004F090FD9C
:1013700002003A4B1A6004F08BFD0200384B1A60F1
:10138000384B01221A703B1D1868FFF7A9FF354B37
:101390001B781D00324B1B68334A9C1804F078FD03
:1013A00003009C429B415B42DBB22B400CD03B1DB7
:1013B00009221A703B1D00225A802A4B00221A7003
:1013C0003B1D1868FFF78CFF284B1B78002B2CD196
:1013D000274B1B78002B28D104F05AFD0200FA237A
:1013E00099001000FEF7B2FF0B1E1ED104F078FB2F
:1013F00003005AB21F4B1A7004F064FB03005AB288
:101400001D4B1A7004F050FB03005AB21B4B1A70AC
:1014100004F03CFB03005AB2194B1A703B1D022228
:101420001A703B1D1868FFF75BFF08217B183A1DF7
:1014300012681A607A18002311880904090C1B0C21
:101440001B040B43528812041B041B0C134318008B
:10145000BD4604B0B0BDC0461C260020A803002035
:10146000AC030020B0030020307500009D03002075
:101470009C030020A1030020A2030020A30300205E
:10148000A4030020B0B58EB002AF3B1D18602F231F
:10149000FB1800221A702E23FB18CA4A12781A7001
:1014A0003B1D1B785BB2092B08D13B1D5B88002BD1
:1014B00004D1C54B01221A7003F07DFFC24B1B788B
:1014C000002B2DD03B1D1B785BB2042B01D001F00B
:1014D000B7FABD4B00221A702E23FB1800221A7097
:1014E0002F23FB1801221A7003F05EFF04F0F8FAB4
:1014F00003005AB2B54B1A7004F0E4FA03005AB272
:10150000B34B1A7004F0D0FA03005AB2B14B1A7000
:1015100004F0BCFA03005AB2AF4B1A7001F090FA13
:10152000A84B1B78062B01D901F07BFA9A00AB4B34
:10153000D3181B689F463B1D1B785BB2022B11D151
:10154000A54B1B785BB2D8B2A24B1B785BB2D9B269
:101550009F4B1B785BB2DAB29C4B1B785BB2DBB261
:10156000FFF794FA3B1D1B785BB2042B01D001F00E
:101570005AFA3B1D5B881A0080235B00134014D08D
:101580003B1D5B881A00012313400ED12E23FB184C
:1015900001221A702F23FB1801221A70904B00228F
:1015A0001A70904B00221A70B4E03B1D5B881A0041
:1015B00080239B00134014D03B1D5B881A0002233C
:1015C00013400ED12E23FB1802221A702F23FB1872
:1015D00001221A70824B00221A70824B00221A706C
:1015E00098E03B1D5B881A008023DB0013400ED07F
:1015F0003B1D5B881A000423134008D12E23FB18DF
:1016000004221A702F23FB1801221A7082E03B1D5E
:101610005B881A0080231B0113400ED03B1D5B88A2
:101620001A000823134008D12E23FB1805221A7034
:101630002F23FB1801221A706CE03B1D5B881A00F7
:1016400080235B0113402AD03B1D5B881A001023C6
:10165000134024D102F08AF803001A002B243B190E
:10166000053A1A7002F098F803001A003B191B782B
:101670001100180002F038F8574B1B785BB2D8B253
:10168000544B1B785BB2D9B2514B1B785BB2DAB2C8
:101690004E4B1B785BB2DBB2FFF7F8F93AE03B1D2B
:1016A0005B881A0080239B01134001D101F0BBF934
:1016B0003B1D5B881A002023134001D001F0B3F9D1
:1016C00002F054F803001A002A243B1905321A705C
:1016D0003B191B78642B09D802F05EF803001A004E
:1016E0003B191B781100180001F0FEFF3A4B1B78E4
:1016F0005BB2D8B2374B1B785BB2D9B2344B1B7894
:101700005BB2DAB2314B1B785BB2DBB2FFF7BEF9EA
:1017100001F089F901F087F93B1D1B785BB2022BC0
:101720000BD1314B00221A702F4B18782C4B1978A3
:101730002C4B1B781A00FFF703FA3B1D1B785BB29A
:10174000042B01D001F071F93B1D5B881A00802346
:101750005B0013400ED03B1D5B881A000123134031
:1017600008D12E23FB1800221A702F23FB18012208
:101770001A70E8E03B1D5B881A0080239B00134031
:1017800034D03B1D5B881A00022313402ED1242144
:101790007B180B221A70124B1B781B029BB2114A4A
:1017A00012789B189AB27B185A807B18186803F03D
:1017B00019F82E23FB1800221A702F23FB18012280
:1017C0001A70C0E09C0300209D030020A1030020AC
:1017D000A2030020A3030020A4030020B88C06105D
:1017E0009F030020A00300209E0300203B1D5B8878
:1017F0001A008023DB0013402BD03B1D5B881A00AE
:101800000423134025D1D54B1B78002B0DD1D44B8D
:101810001B78013BDAB2D24B1A70D14B1B78FF2BED
:101820000DD1CF4B64221A7009E0CE4B1B78013BDF
:10183000DAB2CC4B1A70CB4B1A78CA4B1A70C74B22
:101840001878C74B1978C74B1B781A00FFF778F93F
:1018500079E03B1D5B881A0080231B0113402FD0C9
:101860003B1D5B881A000823134029D1BB4B1B7812
:10187000002B10D1BA4B1B780133DAB2B84B1A7077
:10188000B74B1B7864211800FEF760FD0B00DAB23D
:10189000B34B1A7009E0B34B1B780133DAB2B14B8A
:1018A0001A70B04B1A78AF4B1A70AC4B1878AC4B1F
:1018B0001978AC4B1B781A00FFF742F901F0C0F819
:1018C0003B1D5B881A0080235B01134017D03B1D32
:1018D0005B881A001023134011D1A04B1B785A4289
:1018E0005341DBB21A009D4B1A709C4B18789C4BED
:1018F00019789C4B1B781A00FFF722F923E03B1D57
:101900005B881A0080239B01134001D101F08DF800
:101910003B1D5B881A002023134001D001F085F89D
:101920008E4B1B785A425341DBB21A008B4B1A7014
:101930008A4B18788A4B19788A4B1B781A00FFF764
:10194000FFF801F072F801F070F83B1D1B785BB2F4
:10195000022B27D1814B00221A70834B00221A7070
:10196000824B00221A70824B00221A70814B002297
:101970001A70814B00221A70784B18787A4B1978BC
:101980007A4B1B780133DCB2794B1B780133DDB223
:10199000784B1B78784A1278019200932B00220032
:1019A000FFF75EFA3B1D1B785BB2042B01D001F000
:1019B0003EF83B1D5B881A0080235B0013400ED06D
:1019C0003B1D5B881A000123134008D12E23FB180E
:1019D00000221A702F23FB1801221A7022E23B1DED
:1019E0005B881A0080239B0013400ED03B1D5B8850
:1019F0001A000223134008D12E23FB1803221A7069
:101A00002F23FB1801221A700CE23B1D5B881A0081
:101A10008023DB00134000D1D0E03B1D5B881A001F
:101A20000423134000D0C9E04C4B1B78062B00D98F
:101A3000A6E09A00514BD3181B689F464A4B1B786F
:101A4000013BDAB2484B1A70474B1B78FF2B00D092
:101A500098E0454B0C221A7094E0444B1B78013BF4
:101A6000DAB2424B1A70414B1B78FF2B00D08BE04F
:101A70003E4B1E221A7087E03D4B1B78013BDAB2C9
:101A80003B4B1A703A4B1B78FF2B00D07EE0384B53
:101A90001E221A707AE0374B1B781A00F823134085
:101AA0000DD1344B1B785BB2032213405BB248224A
:101AB000524213435BB2DAB22E4B1A7067E02D4BE1
:101AC0001B78083BDAB22B4B1A7060E0294B1B786D
:101AD000002B03D1274BBB221A7058E0254B1B78F3
:101AE000013BDAB2234B1A70224B1B78042293433A
:101AF000DAB2204B1A704AE01F4B1B781A00F82309
:101B000013400DD11C4B1B785BB2032213405BB218
:101B10004822524213435BB2DAB2174B1A7036E0D6
:101B2000154B1B78083BDAB2134B1A702FE0124B9F
:101B30001B78002B03D1104BBB221A7027E00E4BF1
:101B40001B78013BDAB20C4B1A700B4B1B7804224A
:101B50009343DAB2084B1A7019E0C0469E03002086
:101B60009F030020A0030020B1030020B203002047
:101B7000B3030020B4030020B5030020D48C06106A
:101B8000C04604E0C04602E0C04600E0C046BD4B8F
:101B90001878BD4B1978BD4B1B780133DCB2BC4BB8
:101BA0001B780133DDB2BB4B1B78BB4A1278019224
:101BB00000932B002200FFF753F933E13B1D5B88B4
:101BC0001A0080231B01134000D1C1E03B1D5B883C
:101BD0001A000823134000D0BAE0AA4B1B78062B4A
:101BE00000D999E09A00AD4BD3181B689F46A64BCD
:101BF0001B780133DAB2A44B1A70A34B1B780D216A
:101C00001800FEF7A3FB0B00DAB29F4B1A7088E0B6
:101C10009E4B1B780133DAB29C4B1A709B4B1B789E
:101C20001F211800FEF792FB0B00DAB2974B1A70D7
:101C300077E0974B1B780133DAB2954B1A70944BCF
:101C40001B781F211800FEF781FB0B00DAB2904BC6
:101C50001A7066E08F4B1B781A00F8231340B82BDC
:101C600007D18C4B1B7803221340DAB2894B1A70D0
:101C700057E0884B1B780833DAB2864B1A7050E075
:101C8000844B1B78BB2B03D1824B00221A7045E09A
:101C9000804B1B780133DAB27E4B1A707D4B1B7878
:101CA0001A000423134039D07A4B1B780433DAB27C
:101CB000784B1A7032E0784B1B781A00F8231340E7
:101CC000B82B07D1744B1B7803221340DAB2724B46
:101CD0001A7026E0704B1B780833DAB26E4B1A701C
:101CE0001FE06D4B1B78BB2B03D16B4B00221A708E
:101CF00016E0694B1B780133DAB2674B1A70664BFA
:101D00001B781A00042313400AD0634B1B7804335A
:101D1000DAB2614B1A7003E0C04602E0C04600E050
:101D2000C046584B1878584B1978584B1B780133DC
:101D3000DCB2574B1B780133DDB2564B1B78564A49
:101D40001278019200932B002200FFF789F869E0D6
:101D50003B1D5B881A0080235B01134029D03B1D8B
:101D60005B881A001023134023D1464B1B78013B9C
:101D7000DAB2444B1A70434B1B78FF2B02D1414B14
:101D800006221A703F4B18783F4B19783F4B1B784F
:101D90000133DCB23E4B1B780133DDB23D4B1B7887
:101DA0003D4A1278019200932B002200FFF758F869
:101DB00038E03B1D5B881A0080239B01134001D152
:101DC00000F035FE3B1D5B881A002023134001D034
:101DD00000F02DFE2B4B1B780133DAB2294B1A7021
:101DE000284B1B7807211800FEF7B0FA0B00DAB277
:101DF000244B1A70234B1878234B1978234B1B78EC
:101E00000133DCB2224B1B780133DDB2214B1B784E
:101E1000214A1278019200932B002200FFF720F84C
:101E200000F005FE00F003FE3B1D1B785BB2022BA9
:101E30000BD1144B00221A70124B1878184B1978DA
:101E4000184B1B781A00FEF77BFE3B1D1B785BB21C
:101E5000042B01D000F0EDFD3B1D5B881A008023B0
:101E60005B00134020D03B1D5B881A000123134008
:101E70001AD12E23FB1802221A702F23FB180122DD
:101E80001A70F5E09E030020B1030020B203002089
:101E9000B3030020B4030020B5030020F08C06102B
:101EA0009F030020A00300203B1D5B881A008023B5
:101EB0009B00134034D03B1D5B881A000223134063
:101EC0002ED1964B1A781C217B181A70944B1B78D4
:101ED0000133DAB27B185A70924B1B780133DAB2B5
:101EE0007B181A71904B1A787B189A708F4B1A785E
:101EF0007B18DA708E4B1A787B189A718D4B1A7892
:101F00007B185A717B181868596801F077FD2E23E9
:101F1000FB1800221A702F23FB1801221A70A7E069
:101F20003B1D5B881A008023DB00134027D03B1D3C
:101F30005B881A000423134021D17F4B1B78002BB0
:101F40000DD17C4B1B78013BDAB27A4B1A70794B7E
:101F50001B78FF2B09D1774B64221A7005E0744B74
:101F60001B78013BDAB2724B1A70734B1878714BC5
:101F700019786F4B1B781A00FEF7E2FD78E03B1DE5
:101F80005B881A0080231B0113402ED03B1D5B8809
:101F90001A000823134028D1674B1B78002B10D15F
:101FA000644B1B780133DAB2624B1A70614B1B78B9
:101FB00064211800FEF7CAF90B00DAB25D4B1A7003
:101FC00009E05B4B1B780133DAB2594B1A70584B5E
:101FD0001A78574B1A70584B1878564B1978544B3F
:101FE0001B781A00FEF7ACFD42E03B1D5B881A002F
:101FF00080235B01134017D03B1D5B881A00102320
:10200000134011D14C4B1B785A425341DBB21A009A
:10201000494B1A70484B1878464B1978444B1B783B
:102020001A00FEF78DFD23E03B1D5B881A0080231C
:102030009B01134001D100F0FCFC3B1D5B881A00A2
:102040002023134001D000F0F4FC3B4B1B785A4294
:102050005341DBB21A00384B1A70374B1878354BA6
:102060001978334B1B781A00FEF76AFD00F0E1FC8B
:1020700000F0DFFC3B1D1B785BB2022B30D12E4BF6
:1020800000221A7003F02CFD03005AB22B4B1A7079
:1020900003F018FD03005AB2294B1A7003F004FD37
:1020A00003005AB2274B1A7003F0F0FC03005AB237
:1020B000254B1A70204B1878234B1B785BB2D9B292
:1020C000204B1B785BB2DAB21D4B1B785BB2DCB2E3
:1020D0001A4B1B785BB2DBB200932300FEF71CFEA9
:1020E0003B1D1B785BB2042B01D000F0A4FC3B1D10
:1020F0005B881A0080235B00134027D03B1D5B8860
:102100001A000123134021D12E23FB1800221A703C
:102110002F23FB1801221A7062E2C046B10300208F
:10212000B2030020B3030020B4030020B503002055
:10213000A00300209F0300209E030020A103002095
:10214000A2030020A3030020A40300203B1D5B8802
:102150001A0080239B00134000D19FE03B1D5B8849
:102160001A000223134000D098E0802200216F2043
:1021700002F088F8D74B1B785BB20A211800FEF7F3
:10218000E9F803005BB21B015BB2702213405CB242
:10219000D04B1B785BB20A211800FEF7C1F90B0087
:1021A0005BB223435BB2DBB21A0001216F2002F065
:1021B00069F8C94B1B785BB20A211800FEF7CAF810
:1021C00003005BB21B015CB2C34B1B785BB20A21FC
:1021D0001800FEF7A5F90B005BB223435BB2DBB23C
:1021E0001A0002216F2002F04DF8BC4B1B785BB245
:1021F0000A211800FEF7AEF803005BB21B015CB2C7
:10220000B64B1B785BB20A211800FEF789F90B0068
:102210005BB223435BB2DBB21A0004216F2002F0F1
:1022200031F8AF4B1B785BB20A211800FEF792F829
:1022300003005BB21B015CB2A94B1B785BB20A21A5
:102240001800FEF76DF90B005BB223435BB2DBB203
:102250001A0005216F2002F015F803F041FC03007D
:102260005AB29C4B1A7003F02DFC03005AB29A4BE1
:102270001A7003F019FC03005AB2984B1A7003F05D
:1022800005FC03005AB2964B1A702E23FB1800224D
:102290001A702F23FB1801221A70A1E13B1D5B88E5
:1022A0001A008023DB00134000D18CE03B1D5B88CB
:1022B0001A000423134000D085E08A4B1B78032BBF
:1022C0003FD000DD67E0022B29D064DC002B02D078
:1022D000012B12D05FE0824B1B785BB2DBB2013B7B
:1022E000DBB25AB27E4B1A707D4B1B785BB2002B6F
:1022F0004ADC7B4B0C221A7046E0784B1B785BB2B1
:10230000DBB2013BDBB25AB2744B1A70734B1B78D1
:102310005BB2002B3ADC714B1F221A7036E06E4B19
:102320001B785BB2DBB2013BDBB25AB26A4B1A706C
:10233000694B1B785BB2002B2ADA674B17221A70A5
:1023400026E0644B1B785BB2DBB2013BDBB25AB2D6
:10235000604B1A705F4B1B785BB2002B1ADA5D4B37
:102360003B221A705C4B1B785BB2DBB2013BDBB2E9
:102370005AB2594B1A70584B1B785BB2002B09DAD2
:10238000554B17221A7005E0C04604E0C04602E033
:10239000C04600E0C046534B1878514B1B785BB2E7
:1023A000D9B24E4B1B785BB2DAB24B4B1B785BB2A7
:1023B000DCB2484B1B785BB2DBB200932300FEF724
:1023C000ABFC00F03DFB3B1D5B881A0080231B012A
:1023D000134000D1A0E03B1D5B881A000823134086
:1023E00000D099E03F4B1B78032B43D000DD7CE00D
:1023F000022B2AD000DD78E0002B02D0012B12D076
:1024000073E0374B1B785BB2DBB20133DBB25AB2FD
:10241000334B1A70324B1B785BB20C2B58DD304BB0
:1024200001221A7054E02D4B1B785BB2DBB20133F2
:10243000DBB25AB2294B1A70284B1B785BB21F2BA8
:1024400052DD264B01221A704EE0234B1B785BB203
:10245000DBB20133DBB25AB21F4B1A701E4B1B7832
:102460005BB218211800FEF75BF80B005AB21A4B4A
:102470001A703AE0174B1B785BB2DBB20133DBB268
:102480005AB2144B1A70134B1B785BB23C211800E4
:10249000FEF746F80B005AB20E4B1A700D4B1B7824
:1024A0005BB2002B21D10C4B1B785BB2DBB201334A
:1024B000DBB25AB2084B1A70074B1B785BB218217B
:1024C0001800FEF72DF80B005AB2034B1A700CE0FF
:1024D000C0460AE0A1030020A2030020A3030020BD
:1024E000A40300209E030020C046C44B1878C44BB0
:1024F0001B785BB2D9B2C34B1B785BB2DAB2C24B6A
:102500001B785BB2DCB2C14B1B785BB2DBB20093D1
:102510002300FEF701FC63E03B1D5B881A0080236B
:102520005B01134029D03B1D5B881A001023134028
:1025300023D1B24B1B78013BDAB2B04B1A70AF4BD0
:102540001B78FF2B02D1AD4B03221A70AB4B1878CE
:10255000AB4B1B785BB2D9B2AA4B1B785BB2DAB239
:10256000A94B1B785BB2DCB2A84B1B785BB2DBB229
:1025700000932300FEF7D0FB32E03B1D5B881A007E
:1025800080239B01134000D155E23B1D5B881A005C
:102590002023134000D04EE2984B1B780133DAB26F
:1025A000964B1A70954B1B7803221340DAB2934B6B
:1025B0001A70924B1878924B1B785BB2D9B2914B40
:1025C0001B785BB2DAB2904B1B785BB2DCB28F4BFC
:1025D0001B785BB2DBB200932300FEF79DFB2AE27F
:1025E00029E23B1D1B785BB2022B0BD1834B0022EF
:1025F0001A70824B1C7801F0CFF8030019002000FC
:10260000FEF7ECFA3B1D1B785BB2042B00D014E202
:102610003B1D5B881A0080235B0013400ED03B1DDE
:102620005B881A000123134008D12E23FB180022D7
:102630001A702F23FB1801221A7047E13B1D5B889B
:102640001A0080239B00134031D03B1D5B881A0089
:10265000022313402BD1694B1B78042B23D89A00FB
:102660006B4BD3181B689F462E23FB1806221A704B
:102670002F23FB1801221A7018E001F0ADFA2E2367
:10268000FB1800221A702F23FB1801221A700DE08C
:1026900001F08EF92E23FB1800221A702F23FB184D
:1026A00001221A7002E0C04610E1C0460EE13B1D57
:1026B0005B881A008023DB0013401FD03B1D5B8822
:1026C0001A000423134019D14C4B1B780133DAB2A2
:1026D0004A4B1A70494B1B7805211800FDF736FE4E
:1026E0000B00DAB2454B1A70444B1C7801F054F8D9
:1026F000030019002000FEF771FAE7E03B1D5B883C
:102700001A0080231B0113401CD03B1D5B881A005C
:102710000823134016D1394B1B78013BDAB2374BF3
:102720001A70364B1B78FF2B02D1344B04221A70DF
:10273000324B1C7801F030F8030019002000FEF73E
:102740004DFA7DE13B1D5B881A0080235B0113403D
:1027500060D03B1D5B881A00102313405AD1274BD1
:102760001B78002B02D0012B36D045E001F014F885
:102770000300053BDAB22D243B191A703B191B7874
:102780007F2B15D93B1900221A7000F0EFFF0300D0
:102790001A003B191B781900100000F0A5FF174B19
:1027A0001A783B191B7819001000FEF717FA23E07E
:1027B00000F0DCFF03001A002D243B191B781900E0
:1027C000100000F091FF0D4B1A783B191B7819008F
:1027D0001000FEF703FA0FE018243B190B221A70C1
:1027E00002F072FC0300013B9AB23B195A803B197C
:1027F000186801F0F7FFC04668E0C0469E0300205D
:10280000A4030020A3030020A2030020A1030020B2
:102810000C8D06103B1D5B881A0080239B01134022
:1028200000D10AE13B1D5B881A002023134000D031
:1028300003E1964B1B78002B02D0012B36D045E0EC
:1028400000F0AAFF03001A002C243B1905321A706D
:102850003B191B78642B15D93B1964221A7000F0C0
:1028600085FF03001A003B191B781900100000F0C7
:102870003BFF864B1A783B191B7819001000FEF7B6
:10288000ADF923E000F072FF03001A002C243B197D
:102890001B781900100000F027FF7C4B1A783B19B9
:1028A0001B7819001000FEF799F90FE014243B196A
:1028B0000B221A7002F008FC030001339AB23B1994
:1028C0005A803B19186801F08DFFC046B5E03B1DEA
:1028D0001B785BB2022B08D16D4B00221A806C4B27
:1028E00000229B5E1800FEF70FFC3B1D1B785BB2BD
:1028F000042B00D0A3E03B1D5B881A0080235B0003
:10290000134011D03B1D5B881A00012313400BD1EB
:102910002E23FB1805221A702F23FB1801221A7090
:102920005B4B00221A807BE03B1D5B881A008023F2
:102930009B00134011D03B1D5B881A0002231340FB
:102940000BD12E23FB1805221A702F23FB1801220E
:102950001A704F4B00221A8062E03B1D5B881A0000
:102960008023DB00134005D03B1D5B881A00042345
:10297000134055D03B1D5B881A0080231B01134078
:1029800005D03B1D5B881A000823134048D03B1D2F
:102990005B881A0080235B0113401AD03B1D5B88C3
:1029A0001A001023134014D1394B00229B5E002BD8
:1029B00036DD374B00229B5E9BB2013B9BB21AB2C5
:1029C000334B1A80324B00229B5E1800FEF79CFBB3
:1029D00026E03B1D5B881A0080239B0113402ED00C
:1029E0003B1D5B881A002023134028D1284B00226E
:1029F0009B5E1C0001F072F80300013B9C421EDA52
:102A0000234B00229B5E9BB201339BB21AB2204B38
:102A10001A801F4B00229B5E1800FEF775FB0EE02C
:102A20000DE0C0460CE0C0460AE0C04608E0C046E3
:102A300006E0C04604E0C04602E0C04600E0C046F2
:102A40002F23FB181B78002B1AD010217B18002293
:102A50001A607B1803221A707B181868FEF712FDA3
:102A60000C4B2E22BA1812781A700C217B180022F7
:102A70001A607B1802221A707B181868FEF702FD94
:102A800001231800BD460CB0B0BDC0469E03002017
:102A9000B60300209C03002080B584B000AF7860AE
:102AA0000C4B00221A700C4B7A681A6003F0A2FAE1
:102AB00000F098FD0C217B1801221A707B1800226F
:102AC0005A807B18186800F009F801231800BD46E9
:102AD00004B080BDB8030020BC03002080B582B0E4
:102AE00000AF3B1D1860054B1A683B1D19681000AC
:102AF00000F0E3FCC046BD4602B080BDBC03002030
:102B0000F0B587B000AF1723FB1800221A700C2510
:102B10007B1900221A707B1900225A801626BC19D4
:102B200003F062FB0300237031007B181B78252B18
:102B30000BD01723FB1801221A707B1906221A707A
:102B40007B181B789AB27B195A801F4B1B78012B7C
:102B500015D103F064FB031E04D1FDF7F3FE03005F
:102B6000012B0CD1194B1A683B1D072119703B1D15
:102B7000002159803B1D1968100000F09EFC1723AE
:102B8000FB181B78002B07D0104B1A680C23FB187E
:102B90001968100000F091FC10217B180C22BA1863
:102BA00012681A607A18002311880904090C1B0C9A
:102BB0001B040B43528812041B041B0C1343180004
:102BC000BD4607B0F0BDC046C0030020BC030020D6
:102BD000B0B58EB000AF3B1D18603723FB18002244
:102BE0001A703623FB18DE4A12781A70DC4B1B78F9
:102BF000142B01D900F0A9FB9A00DA4BD3181B68FB
:102C00009F463B1D1B785BB2012B01D000F09FFB60
:102C10003623FB1801221A703723FB1801221A7081
:102C200000F095FB3B1D1B785BB2022B02D1CE4B13
:102C300000221A703B1D1B785BB2062B01D000F0FE
:102C400088FB3B1D5B880F2B3AD89A00C74BD318E3
:102C50001B689F463623FB1802221A703723FB1885
:102C600001221A702DE03623FB1803221A70372335
:102C7000FB1801221A7024E03623FB1805221A7073
:102C80003723FB1801221A701BE03623FB1807229A
:102C90001A703723FB1801221A7012E03623FB1832
:102CA00008221A703723FB1801221A7009E0362314
:102CB000FB1811221A703723FB1801221A7000E04A
:102CC000C04646E33B1D1B785BB2062B00D042E3B7
:102CD0003B1D5B88DCB200F05FFD030019002000A3
:102CE00000F002FD031E03D1A14B180000F082FB8F
:102CF0003623FB1801221A703723FB1801221A70A1
:102D000029E33B1D1B785BB2062B00D025E33B1D5E
:102D10005B88DAB2974B1A703623FB1804221A70BC
:102D20003723FB1801221A7017E33B1D1B785BB297
:102D3000062B00D013E328217B180B221A708D4B31
:102D40001B781B029AB23B1D5B88D3189AB27B1882
:102D50005A807B18186801F045FD3623FB180122C4
:102D60001A703723FB1801221A70F8E23B1D1B78FA
:102D70005BB2022B00D0F4E27B4B01221A707E4B37
:102D800000221A602C257C1900F082FD03002380AC
:102D90002C003B191B881B0A9BB2DBB2180003F006
:102DA00029FA3B191B88DBB2180003F023FA3623FB
:102DB000FB1806221A703723FB1801221A70D0E282
:102DC0003B1D1B785BB2072B00D0CCE22E217B1879
:102DD00020221A80684B1B689AB234243B190800E1
:102DE000791809888A1A1A803B181A88624B1B685E
:102DF000D31A552B02D93B1955221A8000233B6365
:102E000044E01C243B19180007231A00002124F079
:102E100007FB3B1901221A703B1901225A703B191A
:102E200049229A703B194A22DA703B1901221A7121
:102E30003B1901225A713B191B78180003F0DAF98B
:102E40003B195B78180003F0D5F93B199B78180003
:102E500003F0D0F93B191B79180003F0CBF93B19AB
:102E6000DB78180003F0C6F93B195B79180003F012
:102E7000C1F93B199B79180003F0BCF93E4B1B6864
:102E80005A1C3D4B1A603B6B01333B633423FB18E8
:102E90001B883A6B9A42B4DB2E243B191A88364BB6
:102EA0001B68D31A552B00D95DE2032003F0A2F969
:102EB0003B191B88FE2B03D9304B180000F09AFAFF
:102EC0002D4B00221A60284B00221A703623FB1863
:102ED00001221A703723FB1801221A7043E23B1DAE
:102EE0001B785BB2062B00D03FE200F03FFC0300F2
:102EF0001A003B1D5B88DBB21900100000F0F4FBE8
:102F0000031E03D11E4B180000F074FA3623FB1881
:102F100001221A703723FB1801221A7025E23B1D8B
:102F20001B785BB2022B00D021E2164B180007235E
:102F30001A00002124F074FA00F04EFE031E03D1A3
:102F4000114B180000F056FA3623FB1809221A70AC
:102F50003723FB1801221A700C4B00221A7006E26C
:102F6000B8030020208D0610C0030020748D0610C9
:102F70003C850610C1030020C403002054850610C0
:102F80008C850610C8030020A8850610CF030020FA
:102F90003B1D1B785BB2062B00D0EAE13B1D5B8832
:102FA0000D2B11D1DB4B180000F024FA3623FB184F
:102FB00001221A703723FB1801221A70D64B1868A9
:102FC000596800F01BFDD4E1D44B1B78B42B14D905
:102FD000D34B180000F00EFACF4B1868596800F078
:102FE0000DFD3623FB1810221A703723FB1801221F
:102FF0001A700D2003F0FEF8BBE1C84B1B78002BC4
:1030000004D0C54B1868596800F0F8FC3B1D5B887C
:10301000DAB2C14B1A703623FB180A221A70372312
:10302000FB1801221A70A4E13B1D1B785BB2062B32
:1030300000D0A0E13B1D5B88DAB2B74B5A70362353
:10304000FB180B221A703723FB1801221A7092E129
:103050003B1D1B785BB2062B00D08EE13B1D5B88CD
:10306000DAB2AD4B9A703623FB180C221A70372354
:10307000FB1801221A7080E13B1D1B785BB2062B06
:1030800000D07CE13B1D5B88DAB2A34B1A7136237A
:10309000FB180D221A703723FB1801221A706EE1FB
:1030A0003B1D1B785BB2062B00D06AE13B1D5B88A1
:1030B000DAB2994BDA703623FB180E221A703723D6
:1030C000FB1801221A705CE13B1D1B785BB2062BDA
:1030D00000D058E13B1D5B88DAB28F4B5A71362322
:1030E000FB180F221A703723FB1801221A704AE1CD
:1030F0003B1D1B785BB2062B00D046E13B1D5B8875
:10310000DAB2854B9A713623FB1809221A703723DD
:10311000FB1801221A70814B1B780133DAB27F4B06
:103120001A7032E13B1D1B785BB2062B00D02EE1FA
:103130003B1D5B880D2B00D029E13623FB180122B3
:103140001A703723FB1801221A7020E13B1D1B78EF
:103150005BB2062B00D01CE13B1D5B883B2B24D8C7
:103160003B1D5B880A211800FDF76AF803009BB23B
:103170005BB21B015CB23B1D5B880A211800FDF7A6
:10318000E5F80B009BB25BB223435BB2DBB21A00E3
:1031900001216F2001F076F83623FB1812221A70F5
:1031A0003723FB1801221A70F3E05E4B180000F081
:1031B00021F93623FB1801221A703723FB1801224C
:1031C0001A70E6E03B1D1B785BB2062B00D0E2E0F4
:1031D0003B1D5B88172B24D83B1D5B880A211800F8
:1031E000FDF72EF803009BB25BB21B015CB23B1DE6
:1031F0005B880A211800FDF7A9F80B009BB25BB2AF
:1032000023435BB2DBB21A0002216F2001F03AF8CF
:103210003623FB1813221A703723FB1801221A7069
:10322000B9E0414B180000F0E5F83623FB18012205
:103230001A703723FB1801221A70ACE03B1D1B7873
:103240005BB2062B00D0A8E03B1D5B881F2B24D867
:103250003B1D5B880A211800FCF7F2FF03009BB2BC
:103260005BB21B015CB23B1D5B880A211800FDF7B5
:103270006DF80B009BB25BB223435BB2DBB21A006A
:1032800004216F2000F0FEFF3623FB1814221A7071
:103290003723FB1801221A707FE0244B180000F03E
:1032A000A9F83623FB1801221A703723FB180122D4
:1032B0001A7072E03B1D1B785BB2062B00D06EE0EB
:1032C0003B1D5B880C2B33D83B1D5B880A21180003
:1032D000FCF7B6FF03009BB25BB21B015CB23B1D67
:1032E0005B880A211800FDF731F80B009BB25BB236
:1032F00023435BB2DBB21A0005216F2000F0C2FF4E
:103300003623FB1801221A703723FB1801221A708A
:1033100045E0C046C4850610C8030020CF03002046
:10332000D88506100086061018860610308606100E
:103330002E4B180000F05EF83623FB1801221A709D
:103340003723FB1801221A7029E0C04628E0C04646
:1033500026E0C04624E0C04622E0C04620E0C04649
:103360001EE0C0461CE0C0461AE0C04618E0C04659
:1033700016E0C04614E0C04612E0C04610E0C04669
:103380000EE0C0460CE0C0460AE0C04608E0C04679
:1033900006E0C04604E0C04602E0C04600E0C04689
:1033A0003723FB181B78002B1AD010217B18002222
:1033B0001A607B1803221A707B181868FFF708FC44
:1033C0000B4B3622BA1812781A700C217B18002287
:1033D0001A607B1802221A707B181868FFF7F8FB36
:1033E00001231800BD460EB0B0BDC0464886061089
:1033F000B803002080B584B000AF78607B68180007
:10340000FCF70CFF0300BB600E2002F0F3FE00236C
:10341000FB6009E0FB687A68D3181B78180002F09B
:10342000E9FEFB680133FB60FA68BB689A42F1DB96
:103430000A2002F0DFFE01231800BD4604B080BD63
:1034400080B582B000AF0C2023F0E4FC03007B6069
:103450007B68002B01D1002309E07B6800221A6001
:103460007B6800225A607B6800221A817B68180002
:10347000BD4602B080BD80B584B000AF78607B6887
:10348000002B01D1002314E07B681B68FB6008E07F
:10349000FB68BB60FB685B68FB60BB68180023F0DF
:1034A000C3FCFB68002BF3D17B68180023F0BCFC45
:1034B00001231800BD4604B080BD80B584B000AFC4
:1034C00078603B0019607B68002B01D1002326E067
:1034D000082023F09FFC0300FB60FB68002B01D158
:1034E00000231CE0FB683A0012681A60FB680022A7
:1034F0005A607B685B68002B04D07B685B68FA6865
:103500005A6002E07B68FA681A607B68FA685A6061
:103510007B681B8901339AB27B681A8101231800EA
:10352000BD4604B080BD90B589B000AF78607B68BF
:10353000002B07D118217B18FF221A707B1800225C
:103540005A8030E07B681B68002B0AD17B68002220
:103550005A6018217B1800221A707B1800225A80AA
:1035600021E07B681B68FB61FB695A687B681A6015
:103570007B681B68002B02D17B6800225A601424F0
:103580003B19FA6912681A60FB69180023F04CFCB9
:103590007B681B89013B9AB27B681A811823FB1850
:1035A0003A1912681A601823FA18002311880904BE
:1035B000090C1B0C1B040B43528812041B041B0C2C
:1035C00013431800BD4609B090BD80B582B000AF6E
:1035D00078607B681B895A1E9341DBB21800BD4698
:1035E00002B080BD80B582B000AF394B1B78002B94
:1035F00001D0012368E0374B1A69364B0C210A438E
:103600001A6100237B600FE07B68334A9446634471
:10361000DB001B78FF2B04D17B681AB22F4B1A807A
:1036200005E07B6801337B607B68FF2BECDD0023CA
:103630003B600FE03B682A4A94466344DB001B78FA
:10364000FF2B04D13B681AB2264B1A8005E03B6879
:1036500001333B603B68FF2BECDD1E4B1A691D4BB1
:1036600001210A431A611A4B01221A7000F07EF8F8
:103670000300FF2B04D000F08FF80300FF2B22D1B2
:1036800000F074F80300FF2B09D100F085F8030067
:10369000FF2B04D12821322000F026F813E000F09F
:1036A00065F80300FF2B07D100F076F8030019003E
:1036B000322000F019F806E000F058F80300282145
:1036C000180000F011F801231800BD4602B080BDBB
:1036D000D40300200010004000DE0002D0030020D0
:1036E00000DD0002D2030020B0B588B000AF0200B8
:1036F000FB1D1A70BB1D0A1C1A701A4B1B78002B7D
:1037000001D100232AE00C217B185C225A607B182F
:1037100001229A607B1800221A600823FA187B188D
:103720001100180003F0C0FF00F020F800F034F89A
:10373000BB1D1B781A02FB1D1B78D318FB611B25D0
:103740007C19FB6908491A00002003F0D3FE03002E
:1037500023707B191B785A425341DBB21800BD46D7
:1037600008B0B0BDD403002000E0061080B582B0E0
:1037700000AF074B1B78002B01D1002303E0054B62
:103780007B607B681B781800BD4602B080BDC046D8
:10379000D403002000E0061080B582B000AF074BD4
:1037A0001B78002B01D1002303E0054B7B607B6875
:1037B0001B781800BD4602B080BDC046D40300206F
:1037C00001E0061080B584B000AF3B00186059607E
:1037D0002C4B1B78002B01D100234FE02A4B0022F9
:1037E0009B5EFF2B01DD002348E03B001B781A00A5
:1037F0003B005B781B021A433B009B781B041A4377
:103800003B00DB781B061343FB603B001B791A006F
:103810003B005B791B021A433B009B791B0413435B
:10382000BB60194B00229B5E184A94466344DB0040
:103830001900FB681A00002003F05CFE031E01D093
:1038400000231BE0104B00229B5E104A9446634409
:10385000DB0004331900BB681A00002003F04AFEA5
:10386000031E01D0002309E0074B00229B5E9BB2A0
:1038700001339BB21AB2044B1A8001231800BD46D3
:1038800004B080BDD4030020D203002000DD00027C
:1038900080B500AF064B1B78002B01D1002303E05D
:1038A000044B00229B5E9BB21800BD4680BDC04603
:1038B000D4030020D203002090B587B000AF786019
:1038C0000A00BB1C1A8010243B19180007231A0099
:1038D000002123F0A5FD334B1B78002B08D17A681B
:1038E0003B191000190007231A0023F00EFE55E0C3
:1038F000BB1C1B882C4A0021525E934245DCBB1C3A
:103900001B882A4A94466344DB001A7810217B18EE
:103910001A70BB1C1B88254A94466344DB000133A4
:103920001A787B185A70BB1C1B88204A9446634443
:10393000DB0002331A787B189A70BB1C1B881B4A69
:1039400094466344DB0003331A787B18DA70BB1C9F
:103950001B88164A94466344DB0004331A787B18AC
:103960001A71BB1C1B88114A94466344DB00053363
:103970001A787B185A71BB1C1B880C4A9446634406
:10398000DB0006331A787B189A717A681023FB18CB
:103990001000190007231A0023F0B7FD7868BD4610
:1039A00007B090BDD4030020D203002000DD000248
:1039B000B0B586B000AF104B00221A8008217B18EA
:1039C0005D225A607B1801229A607B1800221A60DF
:1039D00017257C193A1D7B181100180003F064FEAE
:1039E000030023707B191B785A425341DBB2180045
:1039F000BD4606B0B0BDC046D203002080B586B03B
:103A000000AF3B0018605960304B1B78002B01D190
:103A1000002356E02E4B00229B5EFF2B01DD00238E
:103A20004FE03B001B781A003B005B781B021A43F7
:103A30003B009B781B041A433B00DB781B061343B7
:103A40007B613B001B791A003B005B791B021A4328
:103A50003B009B791B0413433B611E4B1B69FB60BE
:103A6000FB6801221340FB60194B00229B5E1A4A3F
:103A700094466344DB0019007B691A00002003F0C0
:103A800039FD031E01D000231BE0114B00229B5E79
:103A9000114A94466344DB00043319003B691A0061
:103AA000002003F027FD031E01D0002309E0084B8E
:103AB00000229B5E9BB201339BB21AB2044B1A8068
:103AC00001231800BD4606B080BDC046D4030020C7
:103AD000D00300200010004000DE000280B500AFDF
:103AE000064B1B78002B01D1002303E0044B00227E
:103AF0009B5E9BB21800BD4680BDC046D40300202B
:103B0000D003002090B589B000AF78600A00BB1CDC
:103B10001A8010243B19180007231A00002123F0F3
:103B20007FFC2A4B1B78002B08D17A683B191000C8
:103B3000190007231A0023F0E8FC42E0BB1C1B8895
:103B4000234A0021525E934232DABB1C1B88214A71
:103B500094466344DB001B68FB61BB1C1B881D4A49
:103B600094466344DB0004331B68BB61FB69DAB233
:103B700010217B181A70FB691B0ADAB27B185A7085
:103B8000FB691B0CDAB27B189A70FB691B0EDAB268
:103B90007B18DA70BB69DAB27B181A71BB691B0A31
:103BA000DAB27B185A71BB691B0CDAB27B189A71B6
:103BB0007A681023FB181000190007231A0023F05D
:103BC000A4FC7868BD4609B090BDC046D40300206F
:103BD000D003002000DE0002B0B586B000AF104B6D
:103BE00000221A8008217B185E225A607B1801226D
:103BF0009A607B1800221A6017257C193A1D7B18E1
:103C00001100180003F050FD030023707B191B788E
:103C10005A425341DBB21800BD4606B0B0BDC046A3
:103C2000D003002080B584B000AF7860074B196DD9
:103C3000064B7A680A431A65044B1B6D7A68134079
:103C4000FB60FB68C046BD4604B080BD0000404834
:103C500080B586B000AF1D4B1B78002B01D001232F
:103C600030E03B1D180014231A00002123F0D8FB7C
:103C70000820FFF7D7FF0420FFF7D4FF3B1DB02239
:103C800012011A603B1D00225A603B1D00229A60FF
:103C90003A1D9023DB051100180003F085FD3B1D44
:103CA00010221A603B1D00225A603B1D00229A60C0
:103CB0003B1D074A1900100003F076FD034B01225B
:103CC0001A7001231800BD4606B080BDD503002040
:103CD00000001048B0B500AF80231A019023DB0527
:103CE0001100180003F0E8FF03005BB25B015CB257
:103CF00080239A009023DB051100180003F0DCFFFD
:103D000003005BB21B015BB223435CB2194B102171
:103D1000180003F0D1FF03005BB2DB005BB223436A
:103D20005CB29023DB050821180003F0C5FF0300F7
:103D30005BB29B005BB223435CB29023DB050421A2
:103D4000180003F0B9FF03005BB2DB185BB223433A
:103D50005CB280235A009023DB051100180003F0A9
:103D6000ABFF03005BB223435BB2DBB21800BD467E
:103D7000B0BDC0460000104890B585B000AF02004D
:103D8000FB1D1A70224B1B69002B3DD0214B40229A
:103D9000002199541F4B4122202199541E4B1B682E
:103DA0001A681D4B1B6808218A431A609023DB05A3
:103DB0000221180003F09DFE154B12225A60144B8D
:103DC00000221A61124A9023DB051100180003F04B
:103DD000EBFC0121002005F0D1FF0121002005F0BE
:103DE000FBFFFB1D1B78002B0CD002F051F80300E9
:103DF000FB60C046FB6814331C0002F049F8030066
:103E00009C42F7D800F078FAC046BD4605B090BD98
:103E100020260020342600208C26002090B585B076
:103E200002AF78607B68DB78002B12D17B681B784F
:103E3000DB1899B27B685B781C007B680233104802
:103E40000122019200930123220004F079F803007B
:103E500011E07B681B78DB1899B27B685B781C00EB
:103E60007B6802330648012201920093012322005D
:103E700004F008F903001800BD4603B090BDC04629
:103E80003426002090B585B000AF3B1D1860494B2B
:103E90001B78002B01D1012387E00F23FB180022A0
:103EA0001A7001F0F5FF0300BB60C046424B434A65
:103EB0009B5A1C00404AC0235B01D35A0133C022E5
:103EC000D1001800FCF72CFB0B009C4208D1BB680A
:103ED000FA2292009C1801F0DBFF03009C42E5D817
:103EE000354B364A9B5A1C00334AC0235B01D35AD8
:103EF0000133C022D1001800FCF712FB0B009C42DA
:103F000004D1022003F0B0F801234EE0022003F0B8
:103F1000C9F8294AC0235B01D35A274A99003B1D9F
:103F20001B688B50244AC0235B01D35A013399B2DA
:103F3000214AC0235B01D1521F4AC0235B01D35ADF
:103F4000C022D1001800FCF701FA0B0099B21A4AFE
:103F5000C0235B01D152184B184A9B5A0133C0222F
:103F6000D1001800FCF7DCFA0B001900124AC0233C
:103F70005B01D35A994215D1114B41229B5CDBB2B4
:103F8000202B0FD10120FFF7F7FE0B4B0B4A9B5A5A
:103F90009A00094BD3180F22BC181800FFF73EFFF8
:103FA000030023700F23FB181B781800BD4605B0D3
:103FB00090BDC046DC1B0020D80300200218000082
:103FC0003426002080B582B000AF7860164B174AC7
:103FD0009B5A013399B2144B144A9952124B134A0B
:103FE0009B5AC022D1001800FCF7B0F90B0099B21F
:103FF0000D4B0E4A99520C4B0C4A9A5A0A49C0234F
:104000005B01CB5A9A420BD00120FFF7B5FE064B5D
:10401000064A9B5A9A00044BD3181800FFF7FEFE7D
:10402000C046BD4602B080BDD80300200218000083
:1040300080B584B000AF78600C203B1805221A7060
:104040002A4B2B4A9B5A294A9B00D31801331B78D1
:104050001BB21B021AB2254B25495B5A23499B0010
:10406000CB1802331B781BB213431BB29AB23B1816
:104070005A801E4B1E4A9B5A1C4A9B00D31803337E
:104080001B785A1E1B4B9200D2583B181868904759
:10409000164B174A9B5A013399B2144B144A995242
:1040A000124B134A9B5AC022D1001800FCF74EF95C
:1040B0000B0099B20D4B0E4A99520C4B0C4A9A5A6E
:1040C0000A49C0235B01CB5A9A420BD00120FFF76B
:1040D00053FE064B064A9B5A9A00044BD31818000D
:1040E000FFF79CFEC046BD4604B080BDD80300204B
:1040F000021800008826002090B585B000AF7860D7
:104100007B685B6C0422134021D0134B134A9A5AEC
:104110001149C0235B01CB5A9A4218D001F0B8FE76
:104120000300FB60C046FB680A331C0001F0B0FED0
:1041300003009C42F7D80120FFF71EFE064B074AFA
:104140009B5A9A00044BD3181800FFF767FEC0462D
:10415000BD4605B090BDC046D8030020021800003F
:1041600080B500AF094B1B689A69E023DB00134060
:1041700004D0064B180004F03DF803E0034B180090
:1041800004F01EF8C046BD4680BDC046342600205F
:1041900090B583B000AF364B1B78002B01D00123C4
:1041A00062E001F029FE334B8222D2051A60314BC6
:1041B000314A5A602F4B00229A602E4B0122DA605E
:1041C0002C4B00221A612B4B00225A61294B0022F2
:1041D0009A61284B0022DA61264B00221A62254B95
:1041E000412200219954FC1D224B180003F002FECD
:1041F00003002370FB1D1B78002B01D0002333E04C
:10420000FC1D1C4B0021180005F0C4FC03002370AA
:10421000FB1D1B78002B01D0002325E0FC1D154B56
:104220000021180005F002FD03002370FB1D1B7820
:10423000002B01D0002317E0104B114A00219952A6
:104240000E4AC0235B010021D152094B01221A7092
:104250000120FFF791FD00220221032003F0C4F8A2
:10426000032003F0D6F801231800BD4603B090BD2B
:10427000DC1B0020342600205B5B3000D8030020CC
:1042800002180000B0B584B000AF040008001100AF
:10429000FB1D221C1A70BB1D021C1A707B1D0A1C00
:1042A0001A70134B1B78002B01D101231CE00F2146
:1042B0007B1800221A700F4BFA1D12781A700D4BE2
:1042C000BA1D12785A700B4B0022DA70094B7A1D16
:1042D00012789A700D007C18064B1868FFF7D2FD13
:1042E000030023707B191B781800BD4604B0B0BDD5
:1042F000DC1B0020E01B002080B500AF0D4B4122ED
:104300009B5CDBB2202B11D10B4B0C4A9A5A0A4909
:10431000C0235B01CB5A9A4208D0074B074A9B5AED
:104320009A00054BD3181800FFF778FDC046BD462C
:1043300080BDC04634260020D803002002180000AB
:10434000B0B584B000AF040008001100FB1D221CB2
:104350001A70BB1D021C1A707B1D0A1C1A70184BA8
:104360001B78002B01D1012326E00F23FB1800222C
:104370001A70144BFA1D12781A70124BBA1D12786B
:104380005A707B1D1B78002B03D07B1D1B78012BE3
:1043900001D9012310E00B4B7A1D1278DA70094B1A
:1043A00000229A700F257C19064B1868FFF76AFDEA
:1043B000030023707B191B781800BD4604B0B0BD04
:1043C000DC1B0020E41B0020B0B584B000AF04006B
:1043D00008001100FB1D221C1A70BB1D021C1A7064
:1043E0007B1D0A1C1A700F257C197B1D1A78BB1DBA
:1043F0001978FB1D1B781800FFF744FF030023709A
:104400007B191B78002B01D0012300E0002318004A
:10441000BD4604B0B0BD000090B585B000AF786077
:104420007B681B78032B03D1022002F059FE06E0C3
:104430007B681B780D2B02D1002002F051FE0E2468
:104440003B1900221A807E2001F084FE3B193A19A4
:104450001288FF321A80FF2001F07CFE3B193A19C6
:10446000128806321A80062001F074FE0023BB6019
:104470001DE0BB687A68D3181B7819000E22BB18A0
:10448000BA1812888A181A80BB687A68D318197803
:10449000164ABB68D3180A1C1A70BB687A68D3180E
:1044A0001B78180001F056FEBB680133BB60BB6887
:1044B000032BDEDD0E243B193A19128852421A8072
:1044C0003B191B881B0A9BB2DBB2180001F042FEAD
:1044D0003B191B88DBB2180001F03CFEEF2001F015
:1044E00039FEC046BD4605B090BDC046181C002030
:1044F00080B584B000AF0200BB1D1A800C217B1870
:1045000003221A707B1800225A70BB1D1B881B0ADD
:104510009BB2DAB27B189A70BB1D1B88DAB27B188B
:10452000DA707B181800FFF777FFC046BD4604B06D
:1045300080BD000080B584B000AF0200FB1D1A7082
:10454000FB1D1B78252B01D10023DCE0FB1D1B7814
:104550007E2B02D16E4B00221A706D4B1B78082BFC
:1045600000D9CFE09A006B4BD3181B689F46FB1D08
:104570001B78FF2B00D0C4E0654B01221A70C0E00D
:10458000FB1D1B78062B03D1614B02221A70B9E088
:104590005F4B00221A70B5E05D4B03221A705E4B30
:1045A000FA1D12781A70ADE0FB1D1B78012B03D0A9
:1045B000FB1D1B78002B07D1574BFA1D12785A7040
:1045C000534B04221A709DE0514B00221A7099E05F
:1045D0004F4B05221A70504BFA1D12789A7091E0D9
:1045E0004B4B06221A704C4BFA1D1278DA7089E098
:1045F000494B1B781A00484B5B78D3189BB2464A4C
:1046000092789B189BB2444AD2789B189AB20C209D
:104610003B1842498A1A1A80FB1D1B789AB23B1834
:104620001B881B0A9BB29A4203D1394B07221A708E
:1046300068E0374B00221A7064E0374B1B781A0091
:10464000354B5B78D3189BB2334A92789B189BB258
:10465000314AD2789B189AB20E203B182F498A1AF9
:104660001A80FB1D1A783B181B88FF210B409A42C9
:1046700003D1274B08221A7044E0254B00221A7000
:1046800040E0FB1D1B78EF2B37D1234B1B78402BD1
:1046900028D1022002F024FD1F4BDB78042B1DD112
:1046A0001F4B1B78022B0ED81D4B1B780133DAB23F
:1046B0001B4B1A701B4B1800FFF7AEFE144B002269
:1046C0001A7000231FE0164B00221A70124B3D2275
:1046D0001A70154B1A78104BDA7006E0104B002256
:1046E0001A7002E00E4B00221A70002002F0F8FC53
:1046F000074B00221A70012305E0054B00221A70B7
:1047000000E0C04600231800BD4604B080BDC0468E
:10471000FF1B0020B48D0610001C0020FBFEFFFFD5
:10472000FE1B0020181C0020041C002080B584B053
:1047300000AF7860234B7A681A6001F05DFB224B72
:1047400002221A70FFF728F803001A001F4B1A7094
:104750001E4B1B78002B03D11C4B01221A7006E064
:104760001A4B1B78642B02D9184B64221A70184B11
:104770001E221A7001F08CFB0200164B1A6001F029
:1047800087FB0200144B1A60144B00221A70144B62
:1047900000221A700E4B1B78FF2B03D00C4B1B789A
:1047A0001E2B02D90A4B1E221A700C217B180C22D8
:1047B0001A607B181800FFF72FFE01231800BD4672
:1047C00004B080BDE81B0020EC1B0020ED1B002086
:1047D000EE1B0020F01B0020F81B0020FD1B00201A
:1047E000FC1B002080B582B000AF3B1D1860054B5C
:1047F0001A683B1D19681000FEF75FFEC046BD46F3
:1048000002B080BDE81B0020F0B593B000AF0821D6
:1048100010268B19DB1900221A708B19DB19002264
:104820005A8001F035FB03007B6433229319DE19B3
:1048300001F064FC03003370332210269319DB1956
:104840001B78252B2ED09319DB191B781800FFF746
:1048500071FE031E26D0082130000B18DB19082238
:104860001A70854B1B781BB21B021AB2824BDB7885
:104870001BB213431BB29AB20B18DB195A807F4B41
:104880001B78002B07D10B18DB1901221A700B18AB
:10489000DB1901225A80082310229B18DB191868A3
:1048A000FFF7A0FF764B1B78012B58D1734B1B7879
:1048B000002B54D001F0ECFA0300FB63714B1A6833
:1048C000714B1B689A4205D96E4B1A686E4B1B6878
:1048D000D31A00E00023BB636C4B1B787B63022080
:1048E00002F0FEFB7B6B002B39D07B6B632B36D841
:1048F000BB6BBB600023FB607B6B6422D31A3B6005
:1049000000237B603A687B68B868F968FBF758FE5B
:1049100002000B00BA62FB627B6B1C0000231D00CF
:1049200022002B00B86AF96AFBF72AFE02000B008E
:1049300013007B62534B1B68FA6BD31A7A6A9A4254
:104940000DD84F4B00221A70082110200B18DB19CC
:1049500009221A700B18DB191868FFF743FF474B41
:104960001B78002B26D0464B1B78002B22D101F060
:104970008FFA03003B62464B1B683A6AD31A454ADA
:10498000934217D93C4B3D221A70434B1A783A4B4D
:10499000DA703C4B3A6A1A60082110200B18DB19B8
:1049A00008221A700B18DB191868FFF71BFF384B29
:1049B0003A6A1A60394B1B687A6CD31A384A9342A8
:1049C00012D92E4B1B78002B0ED1082110200B186A
:1049D000DB1901221A700B18DB1900225A800B1800
:1049E000DB191868FFF7FEFEFEF7C0FE03001A0091
:1049F0002C4B1B789A4207D1FEF7CEFE03001A001B
:104A0000224B1B789A421CD01C4B1B78002B18D0D1
:104A1000082410256319DB190A221A70FEF7A6FE76
:104A200003001A001F4B1B78D31A5A425341DBB2C2
:104A30001A006319DB195A806319DB191868FFF72C
:104A4000D1FE0C2110200B18DB1908221218D219E4
:104A500012681A600B18DA19002311880904090C6E
:104A60001B0C1B040B43528812041B041B0C134326
:104A70001800BD4613B0F0BD001C0020FC1B002038
:104A8000EC1B0020F41B00201C1C0020ED1B002050
:104A9000F01B0020C0D40100041C0020F81B0020E3
:104AA000B70B0000EE1B002090B59FB000AF3B1D80
:104AB00018603B1D1B785BB2012B00D0BDE02821A4
:104AC0007B180E221A607B181800FFF7A5FC7723CD
:104AD000FB1801221A70CE4B01221A70FEF7B0FCAF
:104AE00003003B6654E024217B184E221A707B1889
:104AF00000225A707B1800229A70C54B1A787B18D6
:104B0000DA707B181800FFF787FC01F0C1F9030089
:104B1000FB65C04601F0F2FA03001800FFF70AFD3A
:104B2000031E08D1FB6DFA2292009C1801F0B0F927
:104B300003009C42EED8FB6DFA2292009C1801F013
:104B4000A7F903009C4222D3B24B1B784E2B15D100
:104B5000AF4B1B780133DAB2AD4B1A7020217B18B2
:104B600000221A70AB4BDB781A007B185A807B1836
:104B70003A6E19681000FEF7A0FC09E0A54B1B78FF
:104B8000402B05D17723FB1800221A7000E0C046A5
:104B90007723FB181B78002BA5D19D4B1B78013B7D
:104BA000DAB29B4B1A709A4B1B78180022F032F93C
:104BB00003001A00984B1A6000233B6713E03B6E1A
:104BC0001800FEF7B0FC03001A0030217B181A60B1
:104BD0007B185988904B1A683B6FD318CAB21A7069
:104BE0003B6F01333B678A4B1B781A003B6F934244
:104BF000E5DB3B6E1800FEF73EFC884B01221A7085
:104C00002C243B1906221A703B1900225A703B19BA
:104C100000229A70824B1B781A0013001B019B1A0A
:104C20005B0064211800FBF795FB0300DAB23B1927
:104C3000DA703B191800FFF7EFFB3B1D1B785BB2E6
:104C4000092B58D1774B00221A7001F021F902008C
:104C5000754B1A60754B1B78002B3FD0734B1A783D
:104C60006B4B1B789A4239D86B4B1B68002B35D0A5
:104C70006F4B01221A800023FB660EE0664B1A6818
:104C8000FB6ED3181B781A00694B1B88D3189AB295
:104C9000674B1A80FB6E0133FB66644B1B78013B4C
:104CA000FA6E9A42EADB634B1B781A00604B1B8852
:104CB000D3189AB25A243B19013A1A8001F0E8F845
:104CC00003007B65584B7A6D1A605B4B7A6D1A60F6
:104CD0003B191B881800FFF70BFC0CE0514B01221D
:104CE0001A701C217B180E221A607B181800FFF71F
:104CF00093FB0023CCE13B1D1B785BB2082B00D05B
:104D0000E9E03B1D5B881B0A9AB253217B181A709D
:104D10007B181B783D2B00D0DDE001F0B9F80300D3
:104D2000FB64464B1B68FA6CD21A96235B009A42CE
:104D300000D8D0E0414BFA6C1A60414BFA6C1A6013
:104D40003A4B1B78002B00D1C3E0384B1A78304B1C
:104D50001B789A4200D9BCE02F4B1B68002B00D176
:104D6000B7E02D4B1A68314B1B78013BD3181B78E9
:104D7000BB64BB6C002B01D1002389E101235B42A2
:104D8000B96C1800FBF7E2FA0B00DB437B641823D5
:104D9000FA182C4B1100180007F073FFBB697A6CEE
:104DA0009A42F4D9BB69B96C1800FBF7CFFA0B0033
:104DB000DBB20133DAB21F4B1A70BB6C012B11D975
:104DC0001C4B1A78204B1B789A420BD1194B1B783D
:104DD000B96C1800FBF7BAFA0B00DBB20133DAB298
:104DE000144B1A70114B1B78042B03D1114B1B78F9
:104DF000072BC3D00F4B1A78134B1A700D4B1A7830
:104E0000124B1A700A4B01221A800023BB662EE057
:104E1000101C0020001C00200C1C0020FC1B00208B
:104E2000EE1B0020EC1B0020F01B0020051C0020C6
:104E3000061C0020081C00201C1C0020141C002044
:104E4000F41B0020AC2100200A1C0020041C0020C0
:104E5000914B1A68BB6ED3181B781A008F4B1B88B6
:104E6000D3189AB28D4B1A80BB6E0133BB668C4B44
:104E70001B78013BBA6E9A42EADB8A4B1B78632BA4
:104E80001AD9894B1B781A00844B1B88D3189AB205
:104E900042243B19013A1A8000F0FAFF0300FB6339
:104EA000824BFA6B1A60824BFA6B1A603B191B88B3
:104EB0001800FFF71DFB0AE07E4B01221A70142137
:104EC0007B180E221A607B181800FFF7A5FA012341
:104ED000DEE00023DCE03B1D1B785BB20B2B00D037
:104EE00094E03B1D186800F047FE00F0D1FF02007F
:104EF0006E4B1A603B1D5B881B0A9BB2002B00D1D6
:104F000071E03B1D5B881B0A9BB26B4A127893428F
:104F100069D83B1D5B881A00FF23134000D174E061
:104F20003B1D5B881A00FF231A405B4B19683B1D31
:104F30005B881B0A9BB2013BCB181B789A4264DC4E
:104F40005C4B00221A703B1D5B881B0A9BB2DAB2D5
:104F5000534B1A703B1D5B88DAB2584B1A704F4B9B
:104F600001221A8000237B660EE04B4B1A687B6E91
:104F7000D3181B781A00494B1B88D3189AB2474B99
:104F80001A807B6E01337B66454B1B78013B7A6E42
:104F90009A42EADB494B1B781A00404B1B88D31816
:104FA0009AB23A243B19013A1A8000F071FF0300CB
:104FB0007B633E4B7A6B1A603D4B7A6B1A603B19F0
:104FC0001B881800FFF794FA642002F03DF91021C5
:104FD0007B180D221A607B181800FFF71DFA384B5A
:104FE00000221A7011E0334B02221A700C217B1838
:104FF0000E221A607B181800FFF70EFA284B0022C9
:105000001A702E4B00221A7000E0C0463B1D1B7820
:105010005BB20A2B3BD1FEF7BFFB03001A00214B0A
:105020001A70204B1B78002B03D11E4B01221A70E3
:1050300006E01C4B1B78642B02D91A4B64221A70B1
:10504000FEF794FB03001A001E4B1A703B1D5B8891
:10505000002B1CD108243B1906221A703B19002290
:105060005A703B1900229A70164B1B781A001300D5
:105070001B019B1A5B0064211800FBF76BF903000E
:10508000DAB23B19DA703B191800FFF7C5F90123B2
:105090001800BD461FB090BD0C1C0020061C00204F
:1050A000051C0020ED1B0020081C0020F01B002028
:1050B0001C1C0020EC1B0020101C0020041C0020E5
:1050C000091C0020EE1B002080B500AF054B1B78AB
:1050D0001B029BB2044A12789B189BB21800BD4673
:1050E00080BDC046051C0020041C002080B500AF18
:1050F00000F06FF90A2002F0A7F800F075F9C82057
:1051000002F0A2F8002000F027F900F05BF9C04699
:10511000BD4680BD80B592B000AFF860B960FB1DA0
:105120001A70FB687A2B00DDC0E0BB68382B00DD0D
:10513000BCE0FB1D1B78FB63BB68002B00DA073368
:10514000DB10BB63BB685C4A134004D5013B0822FB
:105150005242134301337B63BB680833002B00DAF0
:105160000733DB103B63FB68FB62FB680633BB6203
:10517000FF227B6B9A4013007B6200237B643AE042
:10518000FA6A7B6CD3187B61BB6BDA017B69D3183D
:105190004A4AD35C5BB27A6A52B2D24352B21340EB
:1051A0005AB213203B181A704549FA6B13005B0082
:1051B0009B185B00CA187B6CD3181B7819007A6A9D
:1051C0007B6B1A4113000B401A007B6B9A40130053
:1051D0005AB23B181B785BB213435AB23B181A7091
:1051E000BB6BDA017B69D318344A39180978D1547A
:1051F0007B6C01337B64BA6AFB6AD31A7A6C9A427D
:10520000BEDB3A6BBB6B9A4250DD7B6B0822D31A34
:10521000FF221A4113003B6200233B6440E0FA6A1C
:105220003B6CD318FB613B6BDB015A1DFB69D31A46
:10523000224AD35C5BB23A6A52B2D24352B21340B2
:105240005AB21B203B181A701D49FA6B13005B0001
:105250009B185B00CA183B6CD3181B7819007B6B3A
:105260000822D31A3A6A9A4013000B401A007B6B4B
:105270000821CB1A1A4113005AB23B181B785BB2B3
:1052800013435AB23B181A703B6BDB015A1DFB6982
:10529000D31A0A4A39180978D1543B6C01333B645C
:1052A000BA6AFB6AD31A3A6C9A42B8DB0023180038
:1052B000BD4612B080BDC04607000080201C002003
:1052C000B886061080B586B000AF78607B68002B8A
:1052D0003CD000237B6100233B610023FB602BE07B
:1052E000FB687A68D3181B780A2B05D17B690133D8
:1052F0007B6100233B611CE03B69152B04D17B697A
:1053000001337B6100233B617B69082B20D03A6924
:1053100013005B009B185B0018007B69D900FB68D9
:105320007A68D3181B781A00FFF7F4FE3B69013343
:105330003B61FB680133FB60FB687A68D3181B781C
:10534000002B06D0FB68AA2BCADD02E0C04600E0B5
:10535000C046BD4606B080BD80B584B000AF020037
:10536000FB1D1A700023FB6011E0FB1D1B78012B55
:1053700005D10C4AFB68D318FF221A7004E0094AD1
:10538000FB68D31800221A70FB680133FB60FA68CF
:105390008023DB009A42E8DBC046C046BD4604B02D
:1053A00080BDC046201C002080B500AF00F01CF876
:1053B000C046BD4680BD80B500AF00F072F8C04663
:1053C000BD4680BD80B500AF00F076F8C046BD4652
:1053D00080BD80B500AFFBF729FB00F00DFDFEF7A7
:1053E000D7FEC046BD4680BD80B500AFAE2280214D
:1053F0003C20FEF7E9FF0A2000F0A0F8A822802157
:105400003C20FEF7E1FF3F2280213C20FEF7DCFF3D
:10541000D32280213C20FEF7D7FF082280213C20A8
:10542000FEF7D2FF402280213C20FEF7CDFFA122D3
:1054300080213C20FEF7C8FFC02280213C20FEF7DF
:10544000C3FFDA2280213C20FEF7BEFF122280211A
:105450003C20FEF7B9FFA42280213C20FEF7B4FFD8
:10546000A62280213C20FEF7AFFF8D2280213C2028
:10547000FEF7AAFF142280213C20FEF7A5FFD922C7
:1054800080213C20FEF7A0FFF12280213C20FEF786
:105490009BFFAF2280213C20FEF796FFC046BD4611
:1054A00080BD80B500AFAE2280213C20FEF78CFF8E
:1054B000C046BD4680BD000080B584B000AF1E4B25
:1054C000FB600023BB602FE0BB68DBB20822D31A6D
:1054D000DBB25BB25022524213435BB2DBB21A0022
:1054E00080213C20FEF770FF002280213C20FEF747
:1054F0006BFF102280213C20FEF766FF00237B60BB
:105500000CE0FB681B781A00C0213C20FEF75CFF12
:10551000FB68013BFB607B6801337B607B687F2B12
:10552000EFDDBB680133BB60BB68072BCCDDC04639
:10553000C046BD4604B080BD1F20002080B584B0A9
:1055400000AF786000F0A4FC0300FB60C04600F0F0
:105550009FFC0200FB68D31A7A689A42F7D8C046CB
:10556000C046BD4604B080BDF0B58FB000AFB64BAD
:105570001B78002B69D0B54B1A7820257B191A703F
:10558000B34B1B78002B25D0B24B1B785BB2DB00F2
:105590005CB2B14B1B780F211800FAF751FE0300E3
:1055A000DBB25BB223405BB2DAB27B199A70AB4BD1
:1055B0001A7829007B185A707B180022DA707B1841
:1055C00000221A717B1800225A71A14B1A787B189D
:1055D0009A7130E0FEF75CF90300013B9AB218269D
:1055E000BB1911001800FEF767F920257B1900226E
:1055F0009A707B1900225A70964B1B785BB2DB00C5
:105600005CB2954B1B780F211800FAF719FE0300C6
:10561000DBB25BB223405BB2DAB27B19DA708F4B3C
:105620001A787B191A71BB195A797B195A71BB19EF
:105630009A797B199A712023FB1818685968FEF72C
:10564000C1F8814B00221A7011E20C217B180B2249
:105650001A707B1800225A8000237B6303E2804B80
:1056600000229B5E013300D00CE13223FB180022A4
:105670001A80FDE010243A193223FB181B88190008
:105680001000FEF73FFA31257B1920003A181278F6
:105690001A703B189A782F23FB18D2081A703B18FF
:1056A000DA782E23FB18D2081A703B189B78032255
:1056B0001340DAB22D23FB18111C09018A1A1A7043
:1056C0003B18DB7803221340DAB22C23FB18111CA1
:1056D00009018A1A1A703B185A783B181B799A42AA
:1056E0000BD93B181A787B1901321A707B191B7879
:1056F0000D2B02D17B1901221A7010217B181A7808
:10570000524B1B789A420BD0504B1B783122BA185F
:1057100012789A4204D07B181B78002B00D0A1E0AD
:1057200010217B185A784D4B1B789A420BD87B1866
:105730001A794A4B1B789A4205D37B185A787B1802
:105740001B799A4215D910217B185A78434B1B7844
:105750009A4206D97B181A79404B1B789A4200D29C
:1057600080E010217B185A787B181B799A4200D868
:1057700078E0384B1B782F22BA1812789A4206D25A
:10578000344B1B782E22BA1812789A4245D8314BE6
:105790001B782F22BA1812789A4206D12E4B1B780A
:1057A0002D22BA1812789A420DD92A4B1B782E2234
:1057B000BA1812789A420ED1274B1B782C22BA18AD
:1057C00012789A4207D92F23FA182E23FB18127841
:1057D0001B789A4221D11F4B1B782F217A181278FF
:1057E0009A423FD11C4B1B782D22BA1812789A424C
:1057F00038D8184B1B782E203A1812789A4231D19B
:10580000154B1B782C22BA1812789A422AD97A188A
:105810003B1812781B789A4224D11022BB185B796E
:105820001B029BB2BA1892799B189AB20C217B1872
:105830005A807B181868FEF7D5FF3223FB18002228
:105840009A5E074B1A801DE02C20002028200020A3
:105850002D2000202A2000202B200020292000209D
:105860002E20002032217B181A887B1801321A80E2
:10587000FEF734F903001A003223FB181B88934209
:1058800000D2F7E67C4B00229B5E013300D1E7E0BB
:10589000794B00229B5E9AB210257C193B001100C7
:1058A0001800FEF72FF93B002000190007231A000B
:1058B00021F02BFE30243B1928003A1812781A7078
:1058C0003B189A782B23FB18D2081A703B18DA7809
:1058D0002A23FB18D2081A703B189B780322134026
:1058E000DAB22923FB18111C09018A1A1A703B1815
:1058F000DB7803221340DAB22823FB18111C0901BC
:105900008A1A1A703B185A783B181B799A420BD99D
:105910003B181A783B1901321A703B191B780D2B72
:1059200002D13B1901221A7010217B181A78534BAF
:105930001B789A420BD0514B1B783022BA18127840
:105940009A4204D07B181B78002B00D07AE01021FB
:105950007B185A784A4B1B789A420BD87B181A79D5
:10596000474B1B789A4205D37B185A787B181B79D2
:105970009A4213D910217B185A78414B1B789A42CE
:1059800005D97B181A793E4B1B789A425AD31021BD
:105990007B185A787B181B799A4253D9394B1B785C
:1059A0002B22BA1812789A4206D2364B1B782A223A
:1059B000BA1812789A4253D8324B1B782B22BA1855
:1059C00012789A4206D1304B1B782922BA181278E5
:1059D0009A420DD92B4B1B782A22BA1812789A4278
:1059E0000ED1294B1B782822BA1812789A4207D96F
:1059F0002B23FA182A23FB1812781B789A422FD1EE
:105A0000204B1B782B217A1812789A421AD11E4B00
:105A10001B782922BA1812789A4213D8194B1B788E
:105A20002A203A1812789A420CD1174B1B78282258
:105A3000BA1812789A4205D97A183B1812781B784E
:105A40009A420DD00C217B1800225A807B181868CE
:105A5000FEF7C8FE084B012252421A8000237B63E6
:105A60007B6B01337B637B6B002B00DCF7E5C0466F
:105A7000BD460FB0F0BDC0462E20002028200020DB
:105A8000292000202A2000202B20002080B500AFF4
:105A9000012205216F20FEF753FC024B1B781800F2
:105AA000BD4680BD2820002080B500AF0122042122
:105AB0006F20FEF745FC024B1B781800BD4680BDE9
:105AC0002920002080B500AF012202216F20FEF7BF
:105AD00037FC024B1B781800BD4680BD2A200020F1
